{
  "_format": "hh-sol-artifact-1",
  "contractName": "CipherBomb",
  "sourceName": "contracts/CipherBomb.sol",
  "abi": [
    {
      "inputs": [],
      "stateMutability": "nonpayable",
      "type": "constructor"
    },
    {
      "inputs": [],
      "name": "InvalidShortString",
      "type": "error"
    },
    {
      "inputs": [
        {
          "internalType": "string",
          "name": "str",
          "type": "string"
        }
      ],
      "name": "StringTooLong",
      "type": "error"
    },
    {
      "anonymous": false,
      "inputs": [],
      "name": "BadGuysWin",
      "type": "event"
    },
    {
      "anonymous": false,
      "inputs": [],
      "name": "BombFound",
      "type": "event"
    },
    {
      "anonymous": false,
      "inputs": [
        {
          "indexed": false,
          "internalType": "uint8",
          "name": "cardType",
          "type": "uint8"
        }
      ],
      "name": "CardPicked",
      "type": "event"
    },
    {
      "anonymous": false,
      "inputs": [],
      "name": "EIP712DomainChanged",
      "type": "event"
    },
    {
      "anonymous": false,
      "inputs": [],
      "name": "FalseDeal",
      "type": "event"
    },
    {
      "anonymous": false,
      "inputs": [],
      "name": "GameOpen",
      "type": "event"
    },
    {
      "anonymous": false,
      "inputs": [],
      "name": "GameStart",
      "type": "event"
    },
    {
      "anonymous": false,
      "inputs": [],
      "name": "GoodGuysWin",
      "type": "event"
    },
    {
      "anonymous": false,
      "inputs": [
        {
          "indexed": true,
          "internalType": "address",
          "name": "previousOwner",
          "type": "address"
        },
        {
          "indexed": true,
          "internalType": "address",
          "name": "newOwner",
          "type": "address"
        }
      ],
      "name": "OwnershipTransferred",
      "type": "event"
    },
    {
      "anonymous": false,
      "inputs": [
        {
          "indexed": false,
          "internalType": "address",
          "name": "player",
          "type": "address"
        }
      ],
      "name": "PlayerJoined",
      "type": "event"
    },
    {
      "anonymous": false,
      "inputs": [
        {
          "indexed": false,
          "internalType": "address",
          "name": "player",
          "type": "address"
        }
      ],
      "name": "PlayerKicked",
      "type": "event"
    },
    {
      "anonymous": false,
      "inputs": [
        {
          "indexed": false,
          "internalType": "address",
          "name": "player",
          "type": "address"
        },
        {
          "indexed": false,
          "internalType": "string",
          "name": "name",
          "type": "string"
        }
      ],
      "name": "PlayerNameChanged",
      "type": "event"
    },
    {
      "anonymous": false,
      "inputs": [
        {
          "indexed": false,
          "internalType": "uint8",
          "name": "index",
          "type": "uint8"
        }
      ],
      "name": "Turn",
      "type": "event"
    },
    {
      "anonymous": false,
      "inputs": [],
      "name": "WireFound",
      "type": "event"
    },
    {
      "inputs": [],
      "name": "MAX_PLAYERS",
      "outputs": [
        {
          "internalType": "uint256",
          "name": "",
          "type": "uint256"
        }
      ],
      "stateMutability": "view",
      "type": "function"
    },
    {
      "inputs": [],
      "name": "MIN_PLAYERS",
      "outputs": [
        {
          "internalType": "uint256",
          "name": "",
          "type": "uint256"
        }
      ],
      "stateMutability": "view",
      "type": "function"
    },
    {
      "inputs": [],
      "name": "checkDeal",
      "outputs": [],
      "stateMutability": "nonpayable",
      "type": "function"
    },
    {
      "inputs": [],
      "name": "deal",
      "outputs": [],
      "stateMutability": "nonpayable",
      "type": "function"
    },
    {
      "inputs": [],
      "name": "eip712Domain",
      "outputs": [
        {
          "internalType": "bytes1",
          "name": "fields",
          "type": "bytes1"
        },
        {
          "internalType": "string",
          "name": "name",
          "type": "string"
        },
        {
          "internalType": "string",
          "name": "version",
          "type": "string"
        },
        {
          "internalType": "uint256",
          "name": "chainId",
          "type": "uint256"
        },
        {
          "internalType": "address",
          "name": "verifyingContract",
          "type": "address"
        },
        {
          "internalType": "bytes32",
          "name": "salt",
          "type": "bytes32"
        },
        {
          "internalType": "uint256[]",
          "name": "extensions",
          "type": "uint256[]"
        }
      ],
      "stateMutability": "view",
      "type": "function"
    },
    {
      "inputs": [],
      "name": "gameOpen",
      "outputs": [
        {
          "internalType": "bool",
          "name": "",
          "type": "bool"
        }
      ],
      "stateMutability": "view",
      "type": "function"
    },
    {
      "inputs": [],
      "name": "gameRoleDealNeeded",
      "outputs": [
        {
          "internalType": "bool",
          "name": "",
          "type": "bool"
        }
      ],
      "stateMutability": "view",
      "type": "function"
    },
    {
      "inputs": [],
      "name": "gameRunning",
      "outputs": [
        {
          "internalType": "bool",
          "name": "",
          "type": "bool"
        }
      ],
      "stateMutability": "view",
      "type": "function"
    },
    {
      "inputs": [
        {
          "internalType": "bytes32",
          "name": "publicKey",
          "type": "bytes32"
        },
        {
          "internalType": "bytes",
          "name": "signature",
          "type": "bytes"
        }
      ],
      "name": "getCards",
      "outputs": [
        {
          "internalType": "bytes[3]",
          "name": "",
          "type": "bytes[3]"
        }
      ],
      "stateMutability": "view",
      "type": "function"
    },
    {
      "inputs": [
        {
          "internalType": "bytes32",
          "name": "publicKey",
          "type": "bytes32"
        },
        {
          "internalType": "bytes",
          "name": "signature",
          "type": "bytes"
        }
      ],
      "name": "getRole",
      "outputs": [
        {
          "internalType": "bytes",
          "name": "",
          "type": "bytes"
        }
      ],
      "stateMutability": "view",
      "type": "function"
    },
    {
      "inputs": [],
      "name": "join",
      "outputs": [],
      "stateMutability": "nonpayable",
      "type": "function"
    },
    {
      "inputs": [],
      "name": "kick",
      "outputs": [],
      "stateMutability": "nonpayable",
      "type": "function"
    },
    {
      "inputs": [
        {
          "internalType": "address",
          "name": "",
          "type": "address"
        }
      ],
      "name": "name",
      "outputs": [
        {
          "internalType": "string",
          "name": "",
          "type": "string"
        }
      ],
      "stateMutability": "view",
      "type": "function"
    },
    {
      "inputs": [],
      "name": "numberOfPlayers",
      "outputs": [
        {
          "internalType": "uint8",
          "name": "",
          "type": "uint8"
        }
      ],
      "stateMutability": "view",
      "type": "function"
    },
    {
      "inputs": [],
      "name": "open",
      "outputs": [],
      "stateMutability": "nonpayable",
      "type": "function"
    },
    {
      "inputs": [],
      "name": "owner",
      "outputs": [
        {
          "internalType": "address",
          "name": "",
          "type": "address"
        }
      ],
      "stateMutability": "view",
      "type": "function"
    },
    {
      "inputs": [
        {
          "internalType": "uint256",
          "name": "",
          "type": "uint256"
        }
      ],
      "name": "players",
      "outputs": [
        {
          "internalType": "address",
          "name": "",
          "type": "address"
        }
      ],
      "stateMutability": "view",
      "type": "function"
    },
    {
      "inputs": [],
      "name": "remainingWires",
      "outputs": [
        {
          "internalType": "uint8",
          "name": "",
          "type": "uint8"
        }
      ],
      "stateMutability": "view",
      "type": "function"
    },
    {
      "inputs": [],
      "name": "renounceOwnership",
      "outputs": [],
      "stateMutability": "nonpayable",
      "type": "function"
    },
    {
      "inputs": [
        {
          "internalType": "string",
          "name": "playername",
          "type": "string"
        }
      ],
      "name": "setName",
      "outputs": [],
      "stateMutability": "nonpayable",
      "type": "function"
    },
    {
      "inputs": [],
      "name": "start",
      "outputs": [],
      "stateMutability": "nonpayable",
      "type": "function"
    },
    {
      "inputs": [
        {
          "internalType": "address",
          "name": "player",
          "type": "address"
        }
      ],
      "name": "takeCard",
      "outputs": [],
      "stateMutability": "nonpayable",
      "type": "function"
    },
    {
      "inputs": [
        {
          "internalType": "address",
          "name": "newOwner",
          "type": "address"
        }
      ],
      "name": "transferOwnership",
      "outputs": [],
      "stateMutability": "nonpayable",
      "type": "function"
    },
    {
      "inputs": [],
      "name": "turnCurrentPlayer",
      "outputs": [
        {
          "internalType": "address",
          "name": "",
          "type": "address"
        }
      ],
      "stateMutability": "view",
      "type": "function"
    },
    {
      "inputs": [],
      "name": "turnDealNeeded",
      "outputs": [
        {
          "internalType": "bool",
          "name": "",
          "type": "bool"
        }
      ],
      "stateMutability": "view",
      "type": "function"
    },
    {
      "inputs": [],
      "name": "turnIndex",
      "outputs": [
        {
          "internalType": "uint8",
          "name": "",
          "type": "uint8"
        }
      ],
      "stateMutability": "view",
      "type": "function"
    },
    {
      "inputs": [],
      "name": "turnMove",
      "outputs": [
        {
          "internalType": "uint8",
          "name": "",
          "type": "uint8"
        }
      ],
      "stateMutability": "view",
      "type": "function"
    }
  ],
  "bytecode": "0x6101606040523480156200001257600080fd5b506040518060400160405280601381526020017f417574686f72697a6174696f6e20746f6b656e00000000000000000000000000815250604051806040016040528060018152602001603160f81b81525081816200007f620000796200015060201b60201c565b62000154565b6200008c826001620001a4565b610120526200009d816002620001a4565b61014052815160208084019190912060e052815190820120610100524660a0526200012b60e05161010051604080517f8b73c3c69bb8fe3d512ecc4cf759cc79239f7b179b0ffacaa9a75d522b39400f60208201529081019290925260608201524660808201523060a082015260009060c00160405160208183030381529060405280519060200120905090565b60805250503060c05250506003805460ff191690556200014a620001dd565b620005e9565b3390565b600080546001600160a01b038381166001600160a01b0319831681178455604051919092169283917f8be0079c531659141344cd1fd0a4f28419497f9722a3daafe3b4186f6b6457e09190a35050565b6000602083511015620001c457620001bc836200024e565b9050620001d7565b81620001d1848262000464565b5060ff90505b92915050565b60038054600a80546201000062ffffff199182161790915516620101001790556200020b6004600062000390565b6003805463ff0000001916905562000223336200029a565b6040517ff0571e7ef816e3575e546f9e78033cc0535251179852a1efe493e98b7a672f8090600090a1565b600080829050601f8151111562000285578260405163305a27a960e01b81526004016200027c919062000530565b60405180910390fd5b8051620002928262000580565b179392505050565b80600160005b60035460ff6301000000909104811690821610156200030757826001600160a01b031660048260ff1660068110620002dc57620002dc620005a5565b01546001600160a01b031603620002f257600091505b80620002fe81620005bb565b915050620002a0565b50806200031357600080fd5b60035483906004906301000000900460ff1660068110620003385762000338620005a5565b0180546001600160a01b0319166001600160a01b0392909216919091179055600380546301000000900460ff1690806200037283620005bb565b91906101000a81548160ff021916908360ff16021790555050505050565b50620003a1906006810190620003a4565b50565b5b80821115620003bb5760008155600101620003a5565b5090565b634e487b7160e01b600052604160045260246000fd5b600181811c90821680620003ea57607f821691505b6020821081036200040b57634e487b7160e01b600052602260045260246000fd5b50919050565b601f8211156200045f57600081815260208120601f850160051c810160208610156200043a5750805b601f850160051c820191505b818110156200045b5782815560010162000446565b5050505b505050565b81516001600160401b03811115620004805762000480620003bf565b6200049881620004918454620003d5565b8462000411565b602080601f831160018114620004d05760008415620004b75750858301515b600019600386901b1c1916600185901b1785556200045b565b600085815260208120601f198616915b828110156200050157888601518255948401946001909101908401620004e0565b5085821015620005205787850151600019600388901b60f8161c191681555b5050505050600190811b01905550565b600060208083528351808285015260005b818110156200055f5785810183015185820160400152820162000541565b506000604082860101526040601f19601f8301168501019250505092915050565b805160208083015191908110156200040b5760001960209190910360031b1b16919050565b634e487b7160e01b600052603260045260246000fd5b600060ff821660ff8103620005e057634e487b7160e01b600052601160045260246000fd5b60010192915050565b60805160a05160c05160e0516101005161012051610140516135bb620006446000396000611580015260006115550152600061248101526000612459015260006123b4015260006123de0152600061240801526135bb6000f3fe608060405234801561001057600080fd5b50600436106101b95760003560e01c806383b2b626116100f9578063be9a655511610097578063e2e78fb111610071578063e2e78fb11461037e578063f2fde38b14610398578063f71d96cb146103ab578063fcfff16f146103be57600080fd5b8063be9a655514610356578063c47f00271461035e578063cdb34cc91461037157600080fd5b806385f07bbe116100d357806385f07bbe1461030e5780638da5cb5b14610316578063b688a3631461033b578063be075e151461034357600080fd5b806383b2b626146102d9578063847fde93146102e157806384b0196e146102f357600080fd5b8063553df021116101665780636e8c2caf116101405780636e8c2caf146102a85780636f4bda17146102b5578063715018a6146102c95780637a67b479146102d157600080fd5b8063553df0211461026b5780636094ef6d146102755780636d0062ad1461028857600080fd5b80633cca779b116101975780633cca779b146102205780634411b3eb14610242578063535b047e1461025857600080fd5b806301984892146101be578063160808b9146101e757806320b503901461020d575b600080fd5b6101d16101cc366004612fec565b6103c6565b6040516101de9190613065565b60405180910390f35b600a546101fb90600160b81b900460ff1681565b60405160ff90911681526020016101de565b6101d161021b3660046130ba565b610460565b60035461023290610100900460ff1681565b60405190151581526020016101de565b61024a600681565b6040519081526020016101de565b6003546102329062010000900460ff1681565b6102736106bd565b005b610273610283366004612fec565b61087e565b61029b6102963660046130ba565b610efe565b6040516101de9190613106565b6003546102329060ff1681565b6003546101fb906301000000900460ff1681565b6102736111b5565b6102736111c9565b6102736112ca565b600a546101fb90610100900460ff1681565b6102fb611547565b6040516101de9796959493929190613153565b61024a600481565b6000546001600160a01b03165b6040516001600160a01b0390911681526020016101de565b6102736115d0565b600a546102329062010000900460ff1681565b6102736116c3565b61027361036c3660046131e9565b61182e565b600a546101fb9060ff1681565b600a5461032390630100000090046001600160a01b031681565b6102736103a6366004612fec565b611888565b6103236103b936600461322b565b611915565b610273611935565b601260205260009081526040902080546103df90613244565b80601f016020809104026020016040519081016040528092919081815260200182805461040b90613244565b80156104585780601f1061042d57610100808354040283529160200191610458565b820191906000526020600020905b81548152906001019060200180831161043b57829003601f168201915b505050505081565b600354606090610100900460ff1615801561047d575060035460ff165b6104c85760405162461bcd60e51b81526020600482015260176024820152765468652067616d65206973206e6f742072756e6e696e6760481b60448201526064015b60405180910390fd5b336000805b60035460ff63010000009091048116908216101561052c57826001600160a01b031660048260ff16600681106105055761050561327e565b01546001600160a01b03160361051a57600191505b80610524816132aa565b9150506104cd565b508061057a5760405162461bcd60e51b815260206004820152601960248201527f5468697320706c6179657220646f65736e27742065786973740000000000000060448201526064016104bf565b8585858080601f0160208091040260200160405190810160405280939291908181526020018383808284376000920182905250604080517f051d137ae0e1fae6e3b6559fed4442b35a85a9a39789838ad5c9ea05e7da2dce6020820152908101879052909350610606925060600190505b604051602081830303815290604052805190602001206119a2565b9050600061061482846119d5565b90506001600160a01b03811633146106945760405162461bcd60e51b815260206004820152603160248201527f454950373132207369676e657220616e64207472616e73616374696f6e20736960448201527f676e657220646f206e6f74206d6174636800000000000000000000000000000060648201526084016104bf565b336000818152601360205260409020546106ae908c6119f9565b9b9a5050505050505050505050565b600354610100900460ff161580156106d7575060035460ff165b61071d5760405162461bcd60e51b81526020600482015260176024820152765468652067616d65206973206e6f742072756e6e696e6760481b60448201526064016104bf565b600a5462010000900460ff166107755760405162461bcd60e51b815260206004820152601560248201527f4e6f206e65656420746f206465616c206361726473000000000000000000000060448201526064016104bf565b600a5462010000900460ff166107cd5760405162461bcd60e51b815260206004820152601e60248201527f5468657265206973206e6f206e65656420746f206465616c206361726473000060448201526064016104bf565b600a546000906107f1906107ec90600160b81b900460ff1660016132c9565b611a0c565b905060005b815181101561087a576001825161080d91906132e2565b8103610838578181815181106108255761082561327e565b6020026020010151601181905550610868565b81818151811061084a5761084a61327e565b6020026020010151600b82600681106108655761086561327e565b01555b80610872816132f5565b9150506107f6565b5050565b600354610100900460ff16158015610898575060035460ff165b6108de5760405162461bcd60e51b81526020600482015260176024820152765468652067616d65206973206e6f742072756e6e696e6760481b60448201526064016104bf565b600354600a54630100000090910460ff9081166101009092041610801561090e5750600a5462010000900460ff16155b61095a5760405162461bcd60e51b815260206004820152601260248201527f4e65656420746f206465616c206361726473000000000000000000000000000060448201526064016104bf565b600a543390630100000090046001600160a01b031681146109bd5760405162461bcd60e51b815260206004820152601360248201527f49742773206e6f7420796f7572207475726e210000000000000000000000000060448201526064016104bf565b6001600160a01b038216600090815260146020526040812060018101549054610a0a916109e991611bc7565b6001600160a01b038516600090815260146020526040902060020154611bc7565b90506000610a20610a19611bd3565b6005611be4565b90506000610a41610a318385611c07565b83610a3c8587611c39565b611c45565b6001600160a01b03861660009081526014602052604081206001015491925090610a9b90610a6f9083611c5a565b6001600160a01b038816600090815260146020526040902060010154610a96908590611c07565b611c7d565b6001600160a01b03871660009081526014602052604081205491925090610aee90610ac7906001611c91565b6001600160a01b038916600090815260146020526040902060010154610a96908690611cb4565b9050610b4882610b27601460008b6001600160a01b03166001600160a01b03168152602001908152602001600020600101546001611ce6565b6001600160a01b038a16600090815260146020526040902060010154611c45565b6001600160a01b038816600090815260146020526040902060018082019290925554610b97918391610b7991611ce6565b6001600160a01b038a16600090815260146020526040902054611c45565b6001600160a01b038816600090815260146020526040902055610be4610bbd8284611d09565b6001600160a01b038916600090815260146020526040902060020154610a3c816001611ce6565b6001600160a01b038816600090815260146020526040812060029081019290925590610c13905b60ff16611d18565b9050610c2983610c236000610c0b565b83611c45565b9050610c3982610c236001610c0b565b600a805491925061010090910460ff16906001610c55836132aa565b91906101000a81548160ff021916908360ff160217905550506000610c7982611d25565b60405160ff821681529091507f6e7963ce51f1ffc1517edcaee8433eb8ed64d0308ec21ebf72878e2af351c47c9060200160405180910390a160001960ff821601610d2b576040517f52a718a73b1af720c112b55649c67cd4a2bec87eafdecdbd3f43bfe2ec621f5690600090a16040517fc0153704b61d7888450ec57fde79ed3cbd250c236d78dcc5ecaeb0ea6a307cd690600090a1610d206003805461ffff19169055565b505050505050505050565b60ff8116610de2576040517fccd7b958810730ce4b2fbc03d942bd03a3feb5618054c6c61562000c2b94d2e690600090a1600a8054600160b81b900460ff16906017610d7683613324565b91906101000a81548160ff021916908360ff16021790555050600a60179054906101000a900460ff1660ff16600003610de2576040517f34c3cf60e34f02711f998799056fda338f934c6d952eb04dbee6616bce67d34d90600090a1610d206003805461ffff19169055565b600354600a54630100000090910460ff9081166101009092041603610ec057600a805460ff16906000610e14836132aa565b82546101009290920a60ff818102199093169183160217909155600a54166004039050610e74576040517fc0153704b61d7888450ec57fde79ed3cbd250c236d78dcc5ecaeb0ea6a307cd690600090a1610d206003805461ffff19169055565b600a5460405160ff90911681527fc10f7f17f63e8d93f47783cd5e4fb4ca75a5ead0404e4ef93fd6c497817ac5249060200160405180910390a1600a805462ffff001916620100001790555b5050600a80546001600160a01b03891663010000000276ffffffffffffffffffffffffffffffffffffffff0000001990911617905550505050505050565b610f06612fa2565b600354610100900460ff16158015610f20575060035460ff165b610f665760405162461bcd60e51b81526020600482015260176024820152765468652067616d65206973206e6f742072756e6e696e6760481b60448201526064016104bf565b336000805b60035460ff630100000090910481169082161015610fca57826001600160a01b031660048260ff1660068110610fa357610fa361327e565b01546001600160a01b031603610fb857600191505b80610fc2816132aa565b915050610f6b565b50806110185760405162461bcd60e51b815260206004820152601960248201527f5468697320706c6179657220646f65736e27742065786973740000000000000060448201526064016104bf565b8585858080601f0160208091040260200160405190810160405280939291908181526020018383808284376000920182905250604080517f051d137ae0e1fae6e3b6559fed4442b35a85a9a39789838ad5c9ea05e7da2dce602082015290810187905290935061108d925060600190506105eb565b9050600061109b82846119d5565b90506001600160a01b038116331461111b5760405162461bcd60e51b815260206004820152603160248201527f454950373132207369676e657220616e64207472616e73616374696f6e20736960448201527f676e657220646f206e6f74206d6174636800000000000000000000000000000060648201526084016104bf565b33600081815260146020526040812060010154611138908d6119f9565b6001600160a01b0383166000908152601460205260408120549192509061115f908e6119f9565b6001600160a01b03841660009081526014602052604081206002015491925090611189908f6119f9565b60408051606081018252948552602085019390935291830191909152509b9a5050505050505050505050565b6111bd611d30565b6111c76000611d8a565b565b600354610100900460ff1680156111e3575060035460ff16155b6112265760405162461bcd60e51b81526020600482015260146024820152732a34329033b0b6b29034b9903737ba1037b832b760611b60448201526064016104bf565b61122e611d30565b6003546006630100000090910460ff161061128b5760405162461bcd60e51b815260206004820152601f60248201527f5468652067616d652068617320656e6f75676820706c6179657273202838290060448201526064016104bf565b61129433611dda565b6040513381527fc410a9fa377483ea13d470944175eba08264a469dff89ac963c0fd62105c423f906020015b60405180910390a1565b600354610100900460ff161580156112e4575060035460ff165b61132a5760405162461bcd60e51b81526020600482015260176024820152765468652067616d65206973206e6f742072756e6e696e6760481b60448201526064016104bf565b600a5462010000900460ff166113825760405162461bcd60e51b815260206004820152601560248201527f4e6f206e65656420746f206465616c206361726473000000000000000000000060448201526064016104bf565b600061138e6001611ff7565b905060005b60035460ff6301000000909104811690821610156114ee5760006113b76000611d18565b905060005b600a5460ff600160b81b9091048116908216101561141857611404826113ff6113fc600b8560ff16600681106113f4576113f461327e565b015487611c91565b90565b611bc7565b915080611410816132aa565b9150506113bc565b50600061142a6113fc60115485611c91565b9050600061144b61143c610c0b612019565b6114468585611bc7565b611c39565b90506040518060600160405280838152602001848152602001828152506014600060048760ff16600681106114825761148261327e565b01546001600160a01b0316815260208082019290925260409081016000208351815591830151600183015591909101516002909101556114d685610a966114c98686611bc7565b6114d1612019565b61202d565b945050505080806114e6906132aa565b915050611393565b506114f881612050565b600a8054620100009215830262ff00001990911617908190550460ff1615611544576040517f80da169e279fcbd7c5ad74cb7b48ae525264894f304b8f37ba31cdafc1ad516990600090a15b50565b60006060808280808361157b7f00000000000000000000000000000000000000000000000000000000000000006001612063565b6115a67f00000000000000000000000000000000000000000000000000000000000000006002612063565b60408051600080825260208201909252600f60f81b9b939a50919850469750309650945092509050565b600354610100900460ff1680156115ea575060035460ff16155b61162d5760405162461bcd60e51b81526020600482015260146024820152732a34329033b0b6b29034b9903737ba1037b832b760611b60448201526064016104bf565b6003546006630100000090910460ff161061168a5760405162461bcd60e51b815260206004820152601f60248201527f5468652067616d652068617320656e6f75676820706c6179657273202838290060448201526064016104bf565b6116933361210e565b6040513381527f31e760aa525306aba638a784082a013b6a1cc0a9a1789f3f22281c0453b10b1f906020016112c0565b600354610100900460ff1680156116dd575060035460ff16155b6117205760405162461bcd60e51b81526020600482015260146024820152732a34329033b0b6b29034b9903737ba1037b832b760611b60448201526064016104bf565b6003546004630100000090910460ff16101561177e5760405162461bcd60e51b815260206004820152601a60248201527f4e6f7420656e6f75676820706c6179657220746f20737461727400000000000060448201526064016104bf565b6003805461ffff191660011790819055600a80546004547fffffffffffffffff000000000000000000000000000000000000000000ffffff909116600160b81b63010000009485900460ff160276ffffffffffffffffffffffffffffffffffffffff0000001916176001600160a01b03909116929092029190911790556118036121f6565b6040517f4cf2e2dcdeacb2322843921968cb0e6a97a686594cb0a4f29abb65a7ed65195290600090a1565b3360009081526012602052604090206118488284836133a5565b507f12112454f2a4b714dfd461924e3bf382cab83997982fd38506febcd6166b2dd033838360405161187c93929190613466565b60405180910390a15050565b611890611d30565b6001600160a01b03811661190c5760405162461bcd60e51b815260206004820152602660248201527f4f776e61626c653a206e6577206f776e657220697320746865207a65726f206160448201527f646472657373000000000000000000000000000000000000000000000000000060648201526084016104bf565b61154481611d8a565b6004816006811061192557600080fd5b01546001600160a01b0316905081565b60038054600a80546201000062ffffff1991821617909155166201010017905561196160046000612fc9565b6003805463ff000000191690556119773361210e565b6040517ff0571e7ef816e3575e546f9e78033cc0535251179852a1efe493e98b7a672f8090600090a1565b60006119cf6119af6123a7565b8360405161190160f01b8152600281019290925260228201526042902090565b92915050565b60008060006119e485856124d2565b915091506119f181612517565b509392505050565b6060611a058383612661565b9392505050565b606060008260ff1667ffffffffffffffff811115611a2c57611a2c613341565b604051908082528060200260200182016040528015611a55578160200160208202803683370190505b50905060008060038560ff1610611a8b57611a6e6126d0565b915060068560ff1610611a8657611a83611bd3565b90505b611a96565b611a93611bd3565b90505b60005b8560ff16811015611bbd57600060038760ff1610611b115760068210611ae5576000611ac66005846132e2565b611ad19060036134a5565b9050611add8482611be4565b915050611b39565b6000611af28360016134bc565b611afd9060036134a5565b9050611add611b0c86836126dc565b612700565b6000611b1e8360016134bc565b611b299060036134a5565b9050611b358482611be4565b9150505b60076000611b4f83611b4a84611d18565b61270d565b90506000611b85611b6d8360038054906101000a900460ff1661273d565b83610a3c8560038054906101000a900460ff16611ce6565b905080888681518110611b9a57611b9a61327e565b602002602001018181525050505050508080611bb5906132f5565b915050611a99565b5091949350505050565b6000611a058383612760565b6000611bdf6000612792565b905090565b600082611bf857611bf56000611d18565b92505b611a05838360ff166001612804565b600082611c1b57611c186000611d18565b92505b81611c2d57611c2a6000611d18565b91505b611a058383600061289e565b6000611a0583836128f2565b6000611c52848484612924565b949350505050565b600082611c6e57611c6b6000611d18565b92505b611a05838360ff166001612a88565b6000611a05611c8c848461270d565b612adc565b600082611ca557611ca26000611d18565b92505b611a05838360ff166001612ae9565b600082611cc857611cc56000611d18565b92505b81611cda57611cd76000611d18565b91505b611a0583836000612ae9565b600082611cfa57611cf76000611d18565b92505b611a05838360ff166001612b3d565b6000611a05611c8c8484612b91565b60006119cf826000612bc1565b60006119cf82612c3a565b6000546001600160a01b031633146111c75760405162461bcd60e51b815260206004820181905260248201527f4f776e61626c653a2063616c6c6572206973206e6f7420746865206f776e657260448201526064016104bf565b600080546001600160a01b038381166001600160a01b0319831681178455604051919092169283917f8be0079c531659141344cd1fd0a4f28419497f9722a3daafe3b4186f6b6457e09190a35050565b806000805b60035460ff630100000090910481169082161015611e3e57826001600160a01b031660048260ff1660068110611e1757611e1761327e565b01546001600160a01b031603611e2c57600191505b80611e36816132aa565b915050611ddf565b5080611e8c5760405162461bcd60e51b815260206004820152601960248201527f5468697320706c6179657220646f65736e27742065786973740000000000000060448201526064016104bf565b6000805b6006811015611fbe57846001600160a01b031660048260068110611eb657611eb661327e565b01546001600160a01b031603611f4b5760048160068110611ed957611ed961327e565b0180546001600160a01b03191690556004611ef58260016134bc565b60068110611f0557611f0561327e565b01546001600160a01b031660048260068110611f2357611f2361327e565b0180546001600160a01b0319166001600160a01b039290921691909117905560019150611fac565b8115611fac576004611f5e8260016134bc565b60068110611f6e57611f6e61327e565b01546001600160a01b031660048260068110611f8c57611f8c61327e565b0180546001600160a01b0319166001600160a01b03929092169190911790555b611fb76001826134bc565b9050611e90565b50600380546301000000900460ff169080611fd883613324565b91906101000a81548160ff021916908360ff1602179055505050505050565b6000811561200c576119cf611c8c6001611d18565b6119cf611c8c6000611d18565b600a54600090611bdf9060ff1660056134cf565b6000826120415761203e6000611d18565b92505b611a05838360ff166001612c62565b600061205b82612c3a565b151592915050565b606060ff831461207d5761207683612cb6565b90506119cf565b81805461208990613244565b80601f01602080910402602001604051908101604052809291908181526020018280546120b590613244565b80156121025780601f106120d757610100808354040283529160200191612102565b820191906000526020600020905b8154815290600101906020018083116120e557829003601f168201915b505050505090506119cf565b80600160005b60035460ff63010000009091048116908216101561217357826001600160a01b031660048260ff166006811061214c5761214c61327e565b01546001600160a01b03160361216157600091505b8061216b816132aa565b915050612114565b508061217e57600080fd5b60035483906004906301000000900460ff16600681106121a0576121a061327e565b0180546001600160a01b0319166001600160a01b0392909216919091179055600380546301000000900460ff1690806121d8836132aa565b91906101000a81548160ff021916908360ff16021790555050505050565b60035462010000900460ff1661224e5760405162461bcd60e51b815260206004820152601560248201527f4e6f206e65656420746f206465616c206361726473000000000000000000000060448201526064016104bf565b6002600061225b82611a0c565b9050600460038054906101000a900460ff1660ff1611156122d55760006122be6122b9836000815181106122915761229161327e565b6020026020010151846001815181106122ac576122ac61327e565b6020026020010151611cb4565b612050565b905080156122d3576122ce6121f6565b505050565b505b60005b60035460ff6301000000909104811690821610156123965760006122fc6001611ff7565b905060005b60028160ff16101561234b5761233782610a96868460ff16815181106123295761232961327e565b602002602001015186612cf5565b915080612343816132aa565b915050612301565b50806013600060048560ff16600681106123675761236761327e565b01546001600160a01b03168152602081019190915260400160002055508061238e816132aa565b9150506122d8565b50506003805462ff00001916905550565b6000306001600160a01b037f00000000000000000000000000000000000000000000000000000000000000001614801561240057507f000000000000000000000000000000000000000000000000000000000000000046145b1561242a57507f000000000000000000000000000000000000000000000000000000000000000090565b611bdf604080517f8b73c3c69bb8fe3d512ecc4cf759cc79239f7b179b0ffacaa9a75d522b39400f60208201527f0000000000000000000000000000000000000000000000000000000000000000918101919091527f000000000000000000000000000000000000000000000000000000000000000060608201524660808201523060a082015260009060c00160405160208183030381529060405280519060200120905090565b60008082516041036125085760208301516040840151606085015160001a6124fc87828585612d18565b94509450505050612510565b506000905060025b9250929050565b600081600481111561252b5761252b61330e565b036125335750565b60018160048111156125475761254761330e565b036125945760405162461bcd60e51b815260206004820152601860248201527f45434453413a20696e76616c6964207369676e6174757265000000000000000060448201526064016104bf565b60028160048111156125a8576125a861330e565b036125f55760405162461bcd60e51b815260206004820152601f60248201527f45434453413a20696e76616c6964207369676e6174757265206c656e6774680060448201526064016104bf565b60038160048111156126095761260961330e565b036115445760405162461bcd60e51b815260206004820152602260248201527f45434453413a20696e76616c6964207369676e6174757265202773272076616c604482015261756560f01b60648201526084016104bf565b60405163d6ad57cd60e01b81526004810183905260248101829052606090605d9063d6ad57cd90604401600060405180830381865afa1580156126a8573d6000803e3d6000fd5b505050506040513d6000823e601f3d908101601f19168201604052611a0591908101906134e8565b6000611bdf6001612792565b6000826126f0576126ed6000612ddc565b92505b611a05838361ffff166001612804565b60006119cf826000612de9565b6000826127215761271e6000611d18565b92505b81612733576127306000611d18565b91505b611a058383612e25565b6000826127515761274e6000611d18565b92505b611a05838360ff16600161289e565b600082612774576127716000611d18565b92505b81612786576127836000611d18565b91505b611a0583836000612e9a565b60405163480694a760e11b81526001600160f81b031960f883901b166004820152600090605d9063900d294e906024015b602060405180830381865afa1580156127e0573d6000803e3d6000fd5b505050506040513d601f19601f820116820180604052508101906119cf9190613595565b60008082156128185750600160f81b61281c565b5060005b604051633bb860cf60e21b815260048101869052602481018590526001600160f81b031982166044820152605d9063eee1833c906064015b602060405180830381865afa158015612871573d6000803e3d6000fd5b505050506040513d601f19601f820116820180604052508101906128959190613595565b95945050505050565b60008082156128b25750600160f81b6128b6565b5060005b604051639675211f60e01b815260048101869052602481018590526001600160f81b031982166044820152605d90639675211f90606401612854565b600082612906576129036000611d18565b92505b81612918576129156000611d18565b91505b611a0583836000612b3d565b604051638c14cc2160e01b81526004810183905260248101829052600060448201819052908190605d90638c14cc2190606401602060405180830381865afa158015612974573d6000803e3d6000fd5b505050506040513d601f19601f820116820180604052508101906129989190613595565b60405163816d57d360e01b81526004810187905260248101829052600060448201819052919250605d9063816d57d390606401602060405180830381865afa1580156129e8573d6000803e3d6000fd5b505050506040513d601f19601f82011682018060405250810190612a0c9190613595565b60405163f953e42760e01b8152600481018290526024810186905260006044820152909150605d9063f953e42790606401602060405180830381865afa158015612a5a573d6000803e3d6000fd5b505050506040513d601f19601f82011682018060405250810190612a7e9190613595565b9695505050505050565b6000808215612a9c5750600160f81b612aa0565b5060005b604051631f31e28560e11b815260048101869052602481018590526001600160f81b031982166044820152605d90633e63c50a90606401612854565b60006119cf826000612cf5565b6000808215612afd5750600160f81b612b01565b5060005b604051630d7c62eb60e31b815260048101869052602481018590526001600160f81b031982166044820152605d90636be3175890606401612854565b6000808215612b515750600160f81b612b55565b5060005b604051638c14cc2160e01b815260048101869052602481018590526001600160f81b031982166044820152605d90638c14cc2190606401612854565b600082612ba557612ba26000611d18565b92505b81612bb757612bb46000611d18565b91505b611a058383612eee565b604051631ce2e8d760e31b8152600481018390526001600160f81b031960f883901b166024820152600090605d9063e71746b8906044015b602060405180830381865afa158015612c16573d6000803e3d6000fd5b505050506040513d601f19601f82011682018060405250810190611a059190613595565b6040516301693b9160e61b815260048101829052600090605d90635a4ee440906024016127c3565b6000808215612c765750600160f81b612c7a565b5060005b6040516334a6d7b960e11b815260048101869052602481018590526001600160f81b031982166044820152605d9063694daf7290606401612854565b60606000612cc383612f26565b604080516020808252818301909252919250600091906020820181803683375050509182525060208101929092525090565b600082612d0957612d066000611d18565b92505b611a05838360ff166001612f4e565b6000807f7fffffffffffffffffffffffffffffff5d576e7357a4501ddfe92f46681b20a0831115612d4f5750600090506003612dd3565b6040805160008082526020820180845289905260ff881692820192909252606081018690526080810185905260019060a0016020604051602081039080840390855afa158015612da3573d6000803e3d6000fd5b5050604051601f1901519150506001600160a01b038116612dcc57600060019250925050612dd3565b9150600090505b94509492505050565b60006119cf826001612bc1565b60405163025f346960e51b8152600481018390526001600160f81b031960f883901b166024820152600090605d90634be68d2090604401612bf9565b604051630ccd46b160e31b81526004810183905260248101829052600060448201819052908190605d9063666a3588906064015b602060405180830381865afa158015612e76573d6000803e3d6000fd5b505050506040513d601f19601f82011682018060405250810190611c529190613595565b6000808215612eae5750600160f81b612eb2565b5060005b60405163f953e42760e01b815260048101869052602481018590526001600160f81b031982166044820152605d9063f953e42790606401612854565b604051633b1015f760e21b81526004810183905260248101829052600060448201819052908190605d9063ec4057dc90606401612e59565b600060ff8216601f8111156119cf57604051632cd44ac360e21b815260040160405180910390fd5b6000808215612f625750600160f81b612f66565b5060005b604051631927108160e01b815260048101869052602481018590526001600160f81b031982166044820152605d90631927108190606401612854565b60405180606001604052806003905b6060815260200190600190039081612fb15790505090565b506115449060068101905b80821115612fe85760008155600101612fd4565b5090565b600060208284031215612ffe57600080fd5b81356001600160a01b0381168114611a0557600080fd5b60005b83811015613030578181015183820152602001613018565b50506000910152565b60008151808452613051816020860160208601613015565b601f01601f19169290920160200192915050565b602081526000611a056020830184613039565b60008083601f84011261308a57600080fd5b50813567ffffffffffffffff8111156130a257600080fd5b60208301915083602082850101111561251057600080fd5b6000806000604084860312156130cf57600080fd5b83359250602084013567ffffffffffffffff8111156130ed57600080fd5b6130f986828701613078565b9497909650939450505050565b60208082526000906080830183820185845b600381101561314757601f19878503018352613135848351613039565b93509184019190840190600101613118565b50919695505050505050565b60ff60f81b881681526000602060e08184015261317360e084018a613039565b8381036040850152613185818a613039565b606085018990526001600160a01b038816608086015260a0850187905284810360c0860152855180825283870192509083019060005b818110156131d7578351835292840192918401916001016131bb565b50909c9b505050505050505050505050565b600080602083850312156131fc57600080fd5b823567ffffffffffffffff81111561321357600080fd5b61321f85828601613078565b90969095509350505050565b60006020828403121561323d57600080fd5b5035919050565b600181811c9082168061325857607f821691505b60208210810361327857634e487b7160e01b600052602260045260246000fd5b50919050565b634e487b7160e01b600052603260045260246000fd5b634e487b7160e01b600052601160045260246000fd5b600060ff821660ff81036132c0576132c0613294565b60010192915050565b60ff81811683821601908111156119cf576119cf613294565b818103818111156119cf576119cf613294565b60006001820161330757613307613294565b5060010190565b634e487b7160e01b600052602160045260246000fd5b600060ff82168061333757613337613294565b6000190192915050565b634e487b7160e01b600052604160045260246000fd5b601f8211156122ce57600081815260208120601f850160051c8101602086101561337e5750805b601f850160051c820191505b8181101561339d5782815560010161338a565b505050505050565b67ffffffffffffffff8311156133bd576133bd613341565b6133d1836133cb8354613244565b83613357565b6000601f84116001811461340557600085156133ed5750838201355b600019600387901b1c1916600186901b17835561345f565b600083815260209020601f19861690835b828110156134365786850135825560209485019460019092019101613416565b50868210156134535760001960f88860031b161c19848701351681555b505060018560011b0183555b5050505050565b6001600160a01b038416815260406020820152816040820152818360608301376000818301606090810191909152601f909201601f1916010192915050565b80820281158282048414176119cf576119cf613294565b808201808211156119cf576119cf613294565b60ff82811682821603908111156119cf576119cf613294565b6000602082840312156134fa57600080fd5b815167ffffffffffffffff8082111561351257600080fd5b818401915084601f83011261352657600080fd5b81518181111561353857613538613341565b604051601f8201601f19908116603f0116810190838211818310171561356057613560613341565b8160405282815287602084870101111561357957600080fd5b61358a836020830160208801613015565b979650505050505050565b6000602082840312156135a757600080fd5b505191905056fea164736f6c6343000813000a",
  "linkReferences": {},
  "deployedLinkReferences": {}
}