{
  "_format": "hh-sol-artifact-1",
  "contractName": "CipherBomb",
  "sourceName": "contracts/CipherBomb.sol",
  "abi": [
    {
      "inputs": [],
      "stateMutability": "nonpayable",
      "type": "constructor"
    },
    {
      "inputs": [],
      "name": "InvalidShortString",
      "type": "error"
    },
    {
      "inputs": [
        {
          "internalType": "string",
          "name": "str",
          "type": "string"
        }
      ],
      "name": "StringTooLong",
      "type": "error"
    },
    {
      "anonymous": false,
      "inputs": [
        {
          "indexed": false,
          "internalType": "string",
          "name": "reason",
          "type": "string"
        }
      ],
      "name": "BadGuysWin",
      "type": "event"
    },
    {
      "anonymous": false,
      "inputs": [
        {
          "indexed": false,
          "internalType": "uint8",
          "name": "cardType",
          "type": "uint8"
        }
      ],
      "name": "CardPicked",
      "type": "event"
    },
    {
      "anonymous": false,
      "inputs": [],
      "name": "EIP712DomainChanged",
      "type": "event"
    },
    {
      "anonymous": false,
      "inputs": [],
      "name": "FalseDeal",
      "type": "event"
    },
    {
      "anonymous": false,
      "inputs": [],
      "name": "GameOpen",
      "type": "event"
    },
    {
      "anonymous": false,
      "inputs": [],
      "name": "GameStart",
      "type": "event"
    },
    {
      "anonymous": false,
      "inputs": [],
      "name": "GoodDeal",
      "type": "event"
    },
    {
      "anonymous": false,
      "inputs": [],
      "name": "GoodGuysWin",
      "type": "event"
    },
    {
      "anonymous": false,
      "inputs": [
        {
          "indexed": true,
          "internalType": "address",
          "name": "previousOwner",
          "type": "address"
        },
        {
          "indexed": true,
          "internalType": "address",
          "name": "newOwner",
          "type": "address"
        }
      ],
      "name": "OwnershipTransferred",
      "type": "event"
    },
    {
      "anonymous": false,
      "inputs": [
        {
          "indexed": false,
          "internalType": "address",
          "name": "player",
          "type": "address"
        }
      ],
      "name": "PlayerJoined",
      "type": "event"
    },
    {
      "anonymous": false,
      "inputs": [
        {
          "indexed": false,
          "internalType": "address",
          "name": "player",
          "type": "address"
        }
      ],
      "name": "PlayerKicked",
      "type": "event"
    },
    {
      "anonymous": false,
      "inputs": [
        {
          "indexed": false,
          "internalType": "address",
          "name": "player",
          "type": "address"
        }
      ],
      "name": "PlayerLeft",
      "type": "event"
    },
    {
      "anonymous": false,
      "inputs": [
        {
          "indexed": false,
          "internalType": "address",
          "name": "player",
          "type": "address"
        },
        {
          "indexed": false,
          "internalType": "string",
          "name": "name",
          "type": "string"
        }
      ],
      "name": "PlayerNameChanged",
      "type": "event"
    },
    {
      "anonymous": false,
      "inputs": [
        {
          "indexed": false,
          "internalType": "uint8",
          "name": "index",
          "type": "uint8"
        }
      ],
      "name": "Turn",
      "type": "event"
    },
    {
      "inputs": [],
      "name": "MAX_PLAYERS",
      "outputs": [
        {
          "internalType": "uint256",
          "name": "",
          "type": "uint256"
        }
      ],
      "stateMutability": "view",
      "type": "function"
    },
    {
      "inputs": [],
      "name": "MIN_PLAYERS",
      "outputs": [
        {
          "internalType": "uint256",
          "name": "",
          "type": "uint256"
        }
      ],
      "stateMutability": "view",
      "type": "function"
    },
    {
      "inputs": [],
      "name": "checkDeal",
      "outputs": [],
      "stateMutability": "nonpayable",
      "type": "function"
    },
    {
      "inputs": [],
      "name": "deal",
      "outputs": [],
      "stateMutability": "nonpayable",
      "type": "function"
    },
    {
      "inputs": [],
      "name": "eip712Domain",
      "outputs": [
        {
          "internalType": "bytes1",
          "name": "fields",
          "type": "bytes1"
        },
        {
          "internalType": "string",
          "name": "name",
          "type": "string"
        },
        {
          "internalType": "string",
          "name": "version",
          "type": "string"
        },
        {
          "internalType": "uint256",
          "name": "chainId",
          "type": "uint256"
        },
        {
          "internalType": "address",
          "name": "verifyingContract",
          "type": "address"
        },
        {
          "internalType": "bytes32",
          "name": "salt",
          "type": "bytes32"
        },
        {
          "internalType": "uint256[]",
          "name": "extensions",
          "type": "uint256[]"
        }
      ],
      "stateMutability": "view",
      "type": "function"
    },
    {
      "inputs": [],
      "name": "gameOpen",
      "outputs": [
        {
          "internalType": "bool",
          "name": "",
          "type": "bool"
        }
      ],
      "stateMutability": "view",
      "type": "function"
    },
    {
      "inputs": [],
      "name": "gameRoleDealNeeded",
      "outputs": [
        {
          "internalType": "bool",
          "name": "",
          "type": "bool"
        }
      ],
      "stateMutability": "view",
      "type": "function"
    },
    {
      "inputs": [],
      "name": "gameRunning",
      "outputs": [
        {
          "internalType": "bool",
          "name": "",
          "type": "bool"
        }
      ],
      "stateMutability": "view",
      "type": "function"
    },
    {
      "inputs": [],
      "name": "getCards",
      "outputs": [
        {
          "internalType": "uint8[]",
          "name": "",
          "type": "uint8[]"
        }
      ],
      "stateMutability": "view",
      "type": "function"
    },
    {
      "inputs": [
        {
          "internalType": "bytes32",
          "name": "publicKey",
          "type": "bytes32"
        },
        {
          "internalType": "bytes",
          "name": "signature",
          "type": "bytes"
        }
      ],
      "name": "getMyCards",
      "outputs": [
        {
          "internalType": "bytes[3]",
          "name": "",
          "type": "bytes[3]"
        }
      ],
      "stateMutability": "view",
      "type": "function"
    },
    {
      "inputs": [
        {
          "internalType": "bytes32",
          "name": "publicKey",
          "type": "bytes32"
        },
        {
          "internalType": "bytes",
          "name": "signature",
          "type": "bytes"
        }
      ],
      "name": "getRole",
      "outputs": [
        {
          "internalType": "bytes",
          "name": "",
          "type": "bytes"
        }
      ],
      "stateMutability": "view",
      "type": "function"
    },
    {
      "inputs": [],
      "name": "join",
      "outputs": [],
      "stateMutability": "nonpayable",
      "type": "function"
    },
    {
      "inputs": [
        {
          "internalType": "address",
          "name": "player",
          "type": "address"
        }
      ],
      "name": "kick",
      "outputs": [],
      "stateMutability": "nonpayable",
      "type": "function"
    },
    {
      "inputs": [],
      "name": "leave",
      "outputs": [],
      "stateMutability": "nonpayable",
      "type": "function"
    },
    {
      "inputs": [
        {
          "internalType": "address",
          "name": "",
          "type": "address"
        }
      ],
      "name": "name",
      "outputs": [
        {
          "internalType": "string",
          "name": "",
          "type": "string"
        }
      ],
      "stateMutability": "view",
      "type": "function"
    },
    {
      "inputs": [],
      "name": "numberOfPlayers",
      "outputs": [
        {
          "internalType": "uint8",
          "name": "",
          "type": "uint8"
        }
      ],
      "stateMutability": "view",
      "type": "function"
    },
    {
      "inputs": [],
      "name": "open",
      "outputs": [],
      "stateMutability": "nonpayable",
      "type": "function"
    },
    {
      "inputs": [],
      "name": "owner",
      "outputs": [
        {
          "internalType": "address",
          "name": "",
          "type": "address"
        }
      ],
      "stateMutability": "view",
      "type": "function"
    },
    {
      "inputs": [
        {
          "internalType": "uint256",
          "name": "",
          "type": "uint256"
        }
      ],
      "name": "players",
      "outputs": [
        {
          "internalType": "address",
          "name": "",
          "type": "address"
        }
      ],
      "stateMutability": "view",
      "type": "function"
    },
    {
      "inputs": [],
      "name": "remainingWires",
      "outputs": [
        {
          "internalType": "uint8",
          "name": "",
          "type": "uint8"
        }
      ],
      "stateMutability": "view",
      "type": "function"
    },
    {
      "inputs": [],
      "name": "renounceOwnership",
      "outputs": [],
      "stateMutability": "nonpayable",
      "type": "function"
    },
    {
      "inputs": [
        {
          "internalType": "string",
          "name": "playername",
          "type": "string"
        }
      ],
      "name": "setName",
      "outputs": [],
      "stateMutability": "nonpayable",
      "type": "function"
    },
    {
      "inputs": [],
      "name": "start",
      "outputs": [],
      "stateMutability": "nonpayable",
      "type": "function"
    },
    {
      "inputs": [
        {
          "internalType": "address",
          "name": "player",
          "type": "address"
        }
      ],
      "name": "takeCard",
      "outputs": [],
      "stateMutability": "nonpayable",
      "type": "function"
    },
    {
      "inputs": [
        {
          "internalType": "address",
          "name": "newOwner",
          "type": "address"
        }
      ],
      "name": "transferOwnership",
      "outputs": [],
      "stateMutability": "nonpayable",
      "type": "function"
    },
    {
      "inputs": [],
      "name": "turnCurrentPlayer",
      "outputs": [
        {
          "internalType": "address",
          "name": "",
          "type": "address"
        }
      ],
      "stateMutability": "view",
      "type": "function"
    },
    {
      "inputs": [],
      "name": "turnDealNeeded",
      "outputs": [
        {
          "internalType": "bool",
          "name": "",
          "type": "bool"
        }
      ],
      "stateMutability": "view",
      "type": "function"
    },
    {
      "inputs": [],
      "name": "turnIndex",
      "outputs": [
        {
          "internalType": "uint8",
          "name": "",
          "type": "uint8"
        }
      ],
      "stateMutability": "view",
      "type": "function"
    },
    {
      "inputs": [],
      "name": "turnMove",
      "outputs": [
        {
          "internalType": "uint8",
          "name": "",
          "type": "uint8"
        }
      ],
      "stateMutability": "view",
      "type": "function"
    }
  ],
  "bytecode": "0x6101606040523480156200001257600080fd5b506040518060400160405280601381526020017f417574686f72697a6174696f6e20746f6b656e00000000000000000000000000815250604051806040016040528060018152602001603160f81b81525081816200007f620000796200015060201b60201c565b62000154565b6200008c826001620001a4565b610120526200009d816002620001a4565b61014052815160208084019190912060e052815190820120610100524660a0526200012b60e05161010051604080517f8b73c3c69bb8fe3d512ecc4cf759cc79239f7b179b0ffacaa9a75d522b39400f60208201529081019290925260608201524660808201523060a082015260009060c00160405160208183030381529060405280519060200120905090565b60805250503060c05250506003805460ff191690556200014a620001dd565b620005fb565b3390565b600080546001600160a01b038381166001600160a01b0319831681178455604051919092169283917f8be0079c531659141344cd1fd0a4f28419497f9722a3daafe3b4186f6b6457e09190a35050565b6000602083511015620001c457620001bc8362000260565b9050620001d7565b81620001d1848262000476565b5060ff90505b92915050565b60038054600a80546201000062ffffff199182161790915516620101001790556200020b60046000620003a2565b6003805463ff00000019169055620002356200022f6000546001600160a01b031690565b620002ac565b6040517ff0571e7ef816e3575e546f9e78033cc0535251179852a1efe493e98b7a672f8090600090a1565b600080829050601f8151111562000297578260405163305a27a960e01b81526004016200028e919062000542565b60405180910390fd5b8051620002a48262000592565b179392505050565b80600160005b60035460ff6301000000909104811690821610156200031957826001600160a01b031660048260ff1660068110620002ee57620002ee620005b7565b01546001600160a01b0316036200030457600091505b806200031081620005cd565b915050620002b2565b50806200032557600080fd5b60035483906004906301000000900460ff16600681106200034a576200034a620005b7565b0180546001600160a01b0319166001600160a01b0392909216919091179055600380546301000000900460ff1690806200038483620005cd565b91906101000a81548160ff021916908360ff16021790555050505050565b50620003b3906006810190620003b6565b50565b5b80821115620003cd5760008155600101620003b7565b5090565b634e487b7160e01b600052604160045260246000fd5b600181811c90821680620003fc57607f821691505b6020821081036200041d57634e487b7160e01b600052602260045260246000fd5b50919050565b601f8211156200047157600081815260208120601f850160051c810160208610156200044c5750805b601f850160051c820191505b818110156200046d5782815560010162000458565b5050505b505050565b81516001600160401b03811115620004925762000492620003d1565b620004aa81620004a38454620003e7565b8462000423565b602080601f831160018114620004e25760008415620004c95750858301515b600019600386901b1c1916600185901b1785556200046d565b600085815260208120601f198616915b828110156200051357888601518255948401946001909101908401620004f2565b5085821015620005325787850151600019600388901b60f8161c191681555b5050505050600190811b01905550565b600060208083528351808285015260005b81811015620005715785810183015185820160400152820162000553565b506000604082860101526040601f19601f8301168501019250505092915050565b805160208083015191908110156200041d5760001960209190910360031b1b16919050565b634e487b7160e01b600052603260045260246000fd5b600060ff821660ff8103620005f257634e487b7160e01b600052601160045260246000fd5b60010192915050565b60805160a05160c05160e0516101005161012051610140516138a362000656600039600061156e01526000611543015260006127450152600061271d01526000612678015260006126a2015260006126cc01526138a36000f3fe608060405234801561001057600080fd5b50600436106101cf5760003560e01c806384b0196e11610104578063be9a6555116100a2578063e2e78fb111610071578063e2e78fb1146103bc578063f2fde38b146103d6578063f71d96cb146103e9578063fcfff16f146103fc57600080fd5b8063be9a65551461038c578063c47f002714610394578063cdb34cc9146103a7578063d66d9e19146103b457600080fd5b806396c55175116100de57806396c5517514610349578063b0df9e531461035c578063b688a36314610371578063be075e151461037957600080fd5b806384b0196e1461030157806385f07bbe1461031c5780638da5cb5b1461032457600080fd5b8063553df021116101715780636f4bda171161014b5780636f4bda17146102cb578063715018a6146102df57806383b2b626146102e7578063847fde93146102ef57600080fd5b8063553df021146102a15780636094ef6d146102ab5780636e8c2caf146102be57600080fd5b806326cd716d116101ad57806326cd716d146102365780633cca779b146102565780634411b3eb14610278578063535b047e1461028e57600080fd5b806301984892146101d4578063160808b9146101fd57806320b5039014610223575b600080fd5b6101e76101e236600461328d565b610404565b6040516101f49190613306565b60405180910390f35b600a5461021190600160b81b900460ff1681565b60405160ff90911681526020016101f4565b6101e761023136600461335b565b61049e565b61024961024436600461335b565b6106fb565b6040516101f491906133a7565b60035461026890610100900460ff1681565b60405190151581526020016101f4565b610280600681565b6040519081526020016101f4565b6003546102689062010000900460ff1681565b6102a96109b2565b005b6102a96102b936600461328d565b610b73565b6003546102689060ff1681565b600354610211906301000000900460ff1681565b6102a9611249565b6102a961125d565b600a5461021190610100900460ff1681565b610309611535565b6040516101f497969594939291906133f4565b610280600481565b6000546001600160a01b03165b6040516001600160a01b0390911681526020016101f4565b6102a961035736600461328d565b6115be565b61036461166b565b6040516101f4919061348a565b6102a96117bb565b600a546102689062010000900460ff1681565b6102a96118b4565b6102a96103a23660046134d1565b611a1f565b600a546102119060ff1681565b6102a9611a79565b600a5461033190630100000090046001600160a01b031681565b6102a96103e436600461328d565b611b17565b6103316103f7366004613513565b611ba4565b6102a9611bc4565b6012602052600090815260409020805461041d9061352c565b80601f01602080910402602001604051908101604052809291908181526020018280546104499061352c565b80156104965780601f1061046b57610100808354040283529160200191610496565b820191906000526020600020905b81548152906001019060200180831161047957829003601f168201915b505050505081565b600354606090610100900460ff161580156104bb575060035460ff165b6105065760405162461bcd60e51b81526020600482015260176024820152765468652067616d65206973206e6f742072756e6e696e6760481b60448201526064015b60405180910390fd5b336000805b60035460ff63010000009091048116908216101561056a57826001600160a01b031660048260ff166006811061054357610543613566565b01546001600160a01b03160361055857600191505b8061056281613592565b91505061050b565b50806105b85760405162461bcd60e51b815260206004820152601960248201527f5468697320706c6179657220646f65736e27742065786973740000000000000060448201526064016104fd565b8585858080601f0160208091040260200160405190810160405280939291908181526020018383808284376000920182905250604080517f051d137ae0e1fae6e3b6559fed4442b35a85a9a39789838ad5c9ea05e7da2dce6020820152908101879052909350610644925060600190505b60405160208183030381529060405280519060200120611c42565b905060006106528284611c75565b90506001600160a01b03811633146106d25760405162461bcd60e51b815260206004820152603160248201527f454950373132207369676e657220616e64207472616e73616374696f6e20736960448201527f676e657220646f206e6f74206d6174636800000000000000000000000000000060648201526084016104fd565b336000818152601360205260409020546106ec908c611c99565b9b9a5050505050505050505050565b610703613243565b600354610100900460ff1615801561071d575060035460ff165b6107635760405162461bcd60e51b81526020600482015260176024820152765468652067616d65206973206e6f742072756e6e696e6760481b60448201526064016104fd565b336000805b60035460ff6301000000909104811690821610156107c757826001600160a01b031660048260ff16600681106107a0576107a0613566565b01546001600160a01b0316036107b557600191505b806107bf81613592565b915050610768565b50806108155760405162461bcd60e51b815260206004820152601960248201527f5468697320706c6179657220646f65736e27742065786973740000000000000060448201526064016104fd565b8585858080601f0160208091040260200160405190810160405280939291908181526020018383808284376000920182905250604080517f051d137ae0e1fae6e3b6559fed4442b35a85a9a39789838ad5c9ea05e7da2dce602082015290810187905290935061088a92506060019050610629565b905060006108988284611c75565b90506001600160a01b03811633146109185760405162461bcd60e51b815260206004820152603160248201527f454950373132207369676e657220616e64207472616e73616374696f6e20736960448201527f676e657220646f206e6f74206d6174636800000000000000000000000000000060648201526084016104fd565b33600081815260146020526040812060010154610935908d611c99565b6001600160a01b0383166000908152601460205260408120549192509061095c908e611c99565b6001600160a01b03841660009081526014602052604081206002015491925090610986908f611c99565b60408051606081018252948552602085019390935291830191909152509b9a5050505050505050505050565b600354610100900460ff161580156109cc575060035460ff165b610a125760405162461bcd60e51b81526020600482015260176024820152765468652067616d65206973206e6f742072756e6e696e6760481b60448201526064016104fd565b600a5462010000900460ff16610a6a5760405162461bcd60e51b815260206004820152601560248201527f4e6f206e65656420746f206465616c206361726473000000000000000000000060448201526064016104fd565b600a5462010000900460ff16610ac25760405162461bcd60e51b815260206004820152601e60248201527f5468657265206973206e6f206e65656420746f206465616c206361726473000060448201526064016104fd565b600a54600090610ae690610ae190600160b81b900460ff1660016135b1565b611cac565b905060005b8151811015610b6f5760018251610b0291906135ca565b8103610b2d57818181518110610b1a57610b1a613566565b6020026020010151601181905550610b5d565b818181518110610b3f57610b3f613566565b6020026020010151600b8260068110610b5a57610b5a613566565b01555b80610b67816135dd565b915050610aeb565b5050565b600354610100900460ff16158015610b8d575060035460ff165b610bd35760405162461bcd60e51b81526020600482015260176024820152765468652067616d65206973206e6f742072756e6e696e6760481b60448201526064016104fd565b600354600a54630100000090910460ff90811661010090920416108015610c035750600a5462010000900460ff16155b610c4f5760405162461bcd60e51b815260206004820152601260248201527f4e65656420746f206465616c206361726473000000000000000000000000000060448201526064016104fd565b600a543390630100000090046001600160a01b03168114610cb25760405162461bcd60e51b815260206004820152601360248201527f49742773206e6f7420796f7572207475726e210000000000000000000000000060448201526064016104fd565b6001600160a01b03821660009081526014602052604090206003015460ff16610cda57600080fd5b336001600160a01b03831603610cef57600080fd5b6000610d03610cfc611e67565b6005611e78565b6001600160a01b03841660009081526014602052604081206003015491925090610d6690610d3590849060ff16611e9b565b6001600160a01b0386166000908152601460205260409020600301548490610d6190829060ff16611ebe565b611ee1565b6001600160a01b03851660009081526014602052604081206001015491925090610dc090610d949083611ef6565b6001600160a01b038716600090815260146020526040902060010154610dbb908590611f19565b611f4b565b6001600160a01b03861660009081526014602052604081205491925090610e1390610dec906001611f5f565b6001600160a01b038816600090815260146020526040902060010154610dbb908690611f82565b9050610e6d82610e4c601460008a6001600160a01b03166001600160a01b03168152602001908152602001600020600101546001611ebe565b6001600160a01b038916600090815260146020526040902060010154611ee1565b6001600160a01b038716600090815260146020526040902060018082019290925554610ebc918391610e9e91611ebe565b6001600160a01b038916600090815260146020526040902054611ee1565b6001600160a01b038716600090815260146020526040902055610f09610ee28284611fb4565b6001600160a01b038816600090815260146020526040902060020154610d61816001611ebe565b6001600160a01b0387166000908152601460205260409020600281019190915560030154610f3c9060019060ff166135f6565b6001600160a01b0387166000908152601460205260408120600301805460ff191660ff9390931692909217909155610f7860025b60ff16611fc3565b9050610f8e83610f886000610f70565b83611ee1565b9050610f9e82610f886001610f70565b600a805491925061010090910460ff16906001610fba83613592565b91906101000a81548160ff021916908360ff160217905550506000610fde82611fd0565b905060001960ff82160161104c577f95fb52f15fa9d8267b16e5d9961650d3fa62add7f9f5bee09c1c5b0f6dafde74604051611032906020808252600490820152633137b6b160e11b604082015260600190565b60405180910390a1611042611fdb565b5050505050505050565b60ff81166110d257600a8054600160b81b900460ff1690601761106e83613625565b91906101000a81548160ff021916908360ff16021790555050600a60179054906101000a900460ff1660ff166000036110d2576040517f34c3cf60e34f02711f998799056fda338f934c6d952eb04dbee6616bce67d34d90600090a1611042611fdb565b600354600a54630100000090910460ff90811661010090920416036111d657600a805460ff1690600061110483613592565b82546101009290920a60ff818102199093169183160217909155600a5416600403905061118a577f95fb52f15fa9d8267b16e5d9961650d3fa62add7f9f5bee09c1c5b0f6dafde746040516110329060208082526005908201527f6361726473000000000000000000000000000000000000000000000000000000604082015260600190565b600a5460405160ff90911681527fc10f7f17f63e8d93f47783cd5e4fb4ca75a5ead0404e4ef93fd6c497817ac5249060200160405180910390a1600a805462ffff001916620100001790555b60405160ff821681527f6e7963ce51f1ffc1517edcaee8433eb8ed64d0308ec21ebf72878e2af351c47c9060200160405180910390a15050600a80546001600160a01b03881663010000000276ffffffffffffffffffffffffffffffffffffffff00000019909116179055505050505050565b611251611fed565b61125b6000612047565b565b600354610100900460ff16158015611277575060035460ff165b6112bd5760405162461bcd60e51b81526020600482015260176024820152765468652067616d65206973206e6f742072756e6e696e6760481b60448201526064016104fd565b600a5462010000900460ff166113155760405162461bcd60e51b815260206004820152601560248201527f4e6f206e65656420746f206465616c206361726473000000000000000000000060448201526064016104fd565b60006113216001612097565b905060005b60035460ff6301000000909104811690821610156114b057600061134a6000611fc3565b905060005b600a5460ff600160b81b909104811690821610156113ab576113978261139261138f600b8560ff166006811061138757611387613566565b015487611f5f565b90565b6120b9565b9150806113a381613592565b91505061134f565b5060006113bd61138f60115485611f5f565b905060006113de6113cf610f706120c5565b6113d985856120b9565b6120d9565b905060006113ea6120c5565b905060405180608001604052808481526020018581526020018381526020018260ff168152506014600060048860ff166006811061142a5761142a613566565b01546001600160a01b0316815260208082019290925260409081016000208351815591830151600183015582015160028201556060909101516003909101805460ff191660ff90921691909117905561149786610dbb61148a87876120b9565b6114926120c5565b6120e5565b95505050505080806114a890613592565b915050611326565b506114ba81612108565b600a8054620100009215830262ff00001990911617908190550460ff1615611508576040517f80da169e279fcbd7c5ad74cb7b48ae525264894f304b8f37ba31cdafc1ad516990600090a150565b6040517f041c1546c78d93bfc6a0f8d0453f6b6915e9510fc2ee719ece4c5f9288e869c790600090a15b50565b6000606080828080836115697f0000000000000000000000000000000000000000000000000000000000000000600161211b565b6115947f0000000000000000000000000000000000000000000000000000000000000000600261211b565b60408051600080825260208201909252600f60f81b9b939a50919850469750309650945092509050565b600354610100900460ff1680156115d8575060035460ff16155b61161b5760405162461bcd60e51b81526020600482015260146024820152732a34329033b0b6b29034b9903737ba1037b832b760611b60448201526064016104fd565b611623611fed565b61162c816121c6565b6040516001600160a01b03821681527fc410a9fa377483ea13d470944175eba08264a469dff89ac963c0fd62105c423f9060200160405180910390a150565b600354606090610100900460ff16158015611688575060035460ff165b6116ce5760405162461bcd60e51b81526020600482015260176024820152765468652067616d65206973206e6f742072756e6e696e6760481b60448201526064016104fd565b6003546000906301000000900460ff1667ffffffffffffffff8111156116f6576116f6613642565b60405190808252806020026020018201604052801561171f578160200160208202803683370190505b50905060005b60035460ff6301000000909104811690821610156117b557600060048260ff166006811061175557611755613566565b01546001600160a01b0316600081815260146020526040902060030154845191925060ff908116918591851690811061179057611790613566565b60ff9092166020928302919091019091015250806117ad81613592565b915050611725565b50905090565b600354610100900460ff1680156117d5575060035460ff16155b6118185760405162461bcd60e51b81526020600482015260146024820152732a34329033b0b6b29034b9903737ba1037b832b760611b60448201526064016104fd565b6003546006630100000090910460ff16106118755760405162461bcd60e51b815260206004820152601f60248201527f5468652067616d652068617320656e6f75676820706c6179657273202838290060448201526064016104fd565b61187e336123e3565b6040513381527f31e760aa525306aba638a784082a013b6a1cc0a9a1789f3f22281c0453b10b1f906020015b60405180910390a1565b600354610100900460ff1680156118ce575060035460ff16155b6119115760405162461bcd60e51b81526020600482015260146024820152732a34329033b0b6b29034b9903737ba1037b832b760611b60448201526064016104fd565b6003546004630100000090910460ff16101561196f5760405162461bcd60e51b815260206004820152601a60248201527f4e6f7420656e6f75676820706c6179657220746f20737461727400000000000060448201526064016104fd565b6003805461ffff191660011790819055600a80546004547fffffffffffffffff000000000000000000000000000000000000000000ffffff909116600160b81b63010000009485900460ff160276ffffffffffffffffffffffffffffffffffffffff0000001916176001600160a01b03909116929092029190911790556119f46124cb565b6040517f4cf2e2dcdeacb2322843921968cb0e6a97a686594cb0a4f29abb65a7ed65195290600090a1565b336000908152601260205260409020611a398284836136a6565b507f12112454f2a4b714dfd461924e3bf382cab83997982fd38506febcd6166b2dd0338383604051611a6d93929190613767565b60405180910390a15050565b600354610100900460ff168015611a93575060035460ff16155b611ad65760405162461bcd60e51b81526020600482015260146024820152732a34329033b0b6b29034b9903737ba1037b832b760611b60448201526064016104fd565b611ade611fed565b611ae7336121c6565b6040513381527f282b6298c0318f5d7d7f2483a6823972bdbe9d2798bcfe461159151be7d7b969906020016118aa565b611b1f611fed565b6001600160a01b038116611b9b5760405162461bcd60e51b815260206004820152602660248201527f4f776e61626c653a206e6577206f776e657220697320746865207a65726f206160448201527f646472657373000000000000000000000000000000000000000000000000000060648201526084016104fd565b61153281612047565b60048160068110611bb457600080fd5b01546001600160a01b0316905081565b60038054600a80546201000062ffffff19918216179091551662010100179055611bf06004600061326a565b6003805463ff00000019169055611c17611c126000546001600160a01b031690565b6123e3565b6040517ff0571e7ef816e3575e546f9e78033cc0535251179852a1efe493e98b7a672f8090600090a1565b6000611c6f611c4f61266b565b8360405161190160f01b8152600281019290925260228201526042902090565b92915050565b6000806000611c848585612796565b91509150611c91816127db565b509392505050565b6060611ca58383612925565b9392505050565b606060008260ff1667ffffffffffffffff811115611ccc57611ccc613642565b604051908082528060200260200182016040528015611cf5578160200160208202803683370190505b50905060008060038560ff1610611d2b57611d0e612994565b915060068560ff1610611d2657611d23611e67565b90505b611d36565b611d33611e67565b90505b60005b8560ff16811015611e5d57600060038760ff1610611db15760068210611d85576000611d666005846135ca565b611d719060036137a6565b9050611d7d8482611e78565b915050611dd9565b6000611d928360016137bd565b611d9d9060036137a6565b9050611d7d611dac86836129a0565b6129c4565b6000611dbe8360016137bd565b611dc99060036137a6565b9050611dd58482611e78565b9150505b60076000611def83611dea84611fc3565b6129d1565b90506000611e25611e0d8360038054906101000a900460ff16611e9b565b83610d618560038054906101000a900460ff16611ebe565b905080888681518110611e3a57611e3a613566565b602002602001018181525050505050508080611e55906135dd565b915050611d39565b5091949350505050565b6000611e736000612a01565b905090565b600082611e8c57611e896000611fc3565b92505b611ca5838360ff166001612a73565b600082611eaf57611eac6000611fc3565b92505b611ca5838360ff166001612b0d565b600082611ed257611ecf6000611fc3565b92505b611ca5838360ff166001612b61565b6000611eee848484612bb5565b949350505050565b600082611f0a57611f076000611fc3565b92505b611ca5838360ff166001612d19565b600082611f2d57611f2a6000611fc3565b92505b81611f3f57611f3c6000611fc3565b91505b611ca583836000612b0d565b6000611ca5611f5a84846129d1565b612d6d565b600082611f7357611f706000611fc3565b92505b611ca5838360ff166001612d7a565b600082611f9657611f936000611fc3565b92505b81611fa857611fa56000611fc3565b91505b611ca583836000612d7a565b6000611ca5611f5a8484612dce565b6000611c6f826000612dfe565b6000611c6f82612e77565b6003805460ff1916905561125b611bc4565b6000546001600160a01b0316331461125b5760405162461bcd60e51b815260206004820181905260248201527f4f776e61626c653a2063616c6c6572206973206e6f7420746865206f776e657260448201526064016104fd565b600080546001600160a01b038381166001600160a01b0319831681178455604051919092169283917f8be0079c531659141344cd1fd0a4f28419497f9722a3daafe3b4186f6b6457e09190a35050565b600081156120ac57611c6f611f5a6001611fc3565b611c6f611f5a6000611fc3565b6000611ca58383612e9f565b600a54600090611e739060ff1660056135f6565b6000611ca58383612ed1565b6000826120f9576120f66000611fc3565b92505b611ca5838360ff166001612f03565b600061211382612e77565b151592915050565b606060ff83146121355761212e83612f57565b9050611c6f565b8180546121419061352c565b80601f016020809104026020016040519081016040528092919081815260200182805461216d9061352c565b80156121ba5780601f1061218f576101008083540402835291602001916121ba565b820191906000526020600020905b81548152906001019060200180831161219d57829003601f168201915b50505050509050611c6f565b806000805b60035460ff63010000009091048116908216101561222a57826001600160a01b031660048260ff166006811061220357612203613566565b01546001600160a01b03160361221857600191505b8061222281613592565b9150506121cb565b50806122785760405162461bcd60e51b815260206004820152601960248201527f5468697320706c6179657220646f65736e27742065786973740000000000000060448201526064016104fd565b6000805b60068110156123aa57846001600160a01b0316600482600681106122a2576122a2613566565b01546001600160a01b03160361233757600481600681106122c5576122c5613566565b0180546001600160a01b031916905560046122e18260016137bd565b600681106122f1576122f1613566565b01546001600160a01b03166004826006811061230f5761230f613566565b0180546001600160a01b0319166001600160a01b039290921691909117905560019150612398565b811561239857600461234a8260016137bd565b6006811061235a5761235a613566565b01546001600160a01b03166004826006811061237857612378613566565b0180546001600160a01b0319166001600160a01b03929092169190911790555b6123a36001826137bd565b905061227c565b50600380546301000000900460ff1690806123c483613625565b91906101000a81548160ff021916908360ff1602179055505050505050565b80600160005b60035460ff63010000009091048116908216101561244857826001600160a01b031660048260ff166006811061242157612421613566565b01546001600160a01b03160361243657600091505b8061244081613592565b9150506123e9565b508061245357600080fd5b60035483906004906301000000900460ff166006811061247557612475613566565b0180546001600160a01b0319166001600160a01b0392909216919091179055600380546301000000900460ff1690806124ad83613592565b91906101000a81548160ff021916908360ff16021790555050505050565b60035462010000900460ff166125235760405162461bcd60e51b815260206004820152601560248201527f4e6f206e65656420746f206465616c206361726473000000000000000000000060448201526064016104fd565b6002600061253082611cac565b9050600460038054906101000a900460ff1660ff1611156125aa57600061259361258e8360008151811061256657612566613566565b60200260200101518460018151811061258157612581613566565b6020026020010151611f82565b612108565b905080156125a8576125a36124cb565b505050565b505b60005b60035460ff63010000009091048116908216101561265a576000805b60028160ff16101561260f576125fb848260ff16815181106125ed576125ed613566565b602002602001015184612f96565b91508061260781613592565b9150506125c9565b50806013600060048560ff166006811061262b5761262b613566565b01546001600160a01b03168152602081019190915260400160002055508061265281613592565b9150506125ad565b50506003805462ff00001916905550565b6000306001600160a01b037f0000000000000000000000000000000000000000000000000000000000000000161480156126c457507f000000000000000000000000000000000000000000000000000000000000000046145b156126ee57507f000000000000000000000000000000000000000000000000000000000000000090565b611e73604080517f8b73c3c69bb8fe3d512ecc4cf759cc79239f7b179b0ffacaa9a75d522b39400f60208201527f0000000000000000000000000000000000000000000000000000000000000000918101919091527f000000000000000000000000000000000000000000000000000000000000000060608201524660808201523060a082015260009060c00160405160208183030381529060405280519060200120905090565b60008082516041036127cc5760208301516040840151606085015160001a6127c087828585612fb9565b945094505050506127d4565b506000905060025b9250929050565b60008160048111156127ef576127ef61360f565b036127f75750565b600181600481111561280b5761280b61360f565b036128585760405162461bcd60e51b815260206004820152601860248201527f45434453413a20696e76616c6964207369676e6174757265000000000000000060448201526064016104fd565b600281600481111561286c5761286c61360f565b036128b95760405162461bcd60e51b815260206004820152601f60248201527f45434453413a20696e76616c6964207369676e6174757265206c656e6774680060448201526064016104fd565b60038160048111156128cd576128cd61360f565b036115325760405162461bcd60e51b815260206004820152602260248201527f45434453413a20696e76616c6964207369676e6174757265202773272076616c604482015261756560f01b60648201526084016104fd565b60405163d6ad57cd60e01b81526004810183905260248101829052606090605d9063d6ad57cd90604401600060405180830381865afa15801561296c573d6000803e3d6000fd5b505050506040513d6000823e601f3d908101601f19168201604052611ca591908101906137d0565b6000611e736001612a01565b6000826129b4576129b1600061307d565b92505b611ca5838361ffff166001612a73565b6000611c6f82600061308a565b6000826129e5576129e26000611fc3565b92505b816129f7576129f46000611fc3565b91505b611ca583836130c6565b60405163480694a760e11b81526001600160f81b031960f883901b166004820152600090605d9063900d294e906024015b602060405180830381865afa158015612a4f573d6000803e3d6000fd5b505050506040513d601f19601f82011682018060405250810190611c6f919061387d565b6000808215612a875750600160f81b612a8b565b5060005b604051633bb860cf60e21b815260048101869052602481018590526001600160f81b031982166044820152605d9063eee1833c906064015b602060405180830381865afa158015612ae0573d6000803e3d6000fd5b505050506040513d601f19601f82011682018060405250810190612b04919061387d565b95945050505050565b6000808215612b215750600160f81b612b25565b5060005b604051639675211f60e01b815260048101869052602481018590526001600160f81b031982166044820152605d90639675211f90606401612ac3565b6000808215612b755750600160f81b612b79565b5060005b604051638c14cc2160e01b815260048101869052602481018590526001600160f81b031982166044820152605d90638c14cc2190606401612ac3565b604051638c14cc2160e01b81526004810183905260248101829052600060448201819052908190605d90638c14cc2190606401602060405180830381865afa158015612c05573d6000803e3d6000fd5b505050506040513d601f19601f82011682018060405250810190612c29919061387d565b60405163816d57d360e01b81526004810187905260248101829052600060448201819052919250605d9063816d57d390606401602060405180830381865afa158015612c79573d6000803e3d6000fd5b505050506040513d601f19601f82011682018060405250810190612c9d919061387d565b60405163f953e42760e01b8152600481018290526024810186905260006044820152909150605d9063f953e42790606401602060405180830381865afa158015612ceb573d6000803e3d6000fd5b505050506040513d601f19601f82011682018060405250810190612d0f919061387d565b9695505050505050565b6000808215612d2d5750600160f81b612d31565b5060005b604051631f31e28560e11b815260048101869052602481018590526001600160f81b031982166044820152605d90633e63c50a90606401612ac3565b6000611c6f826000612f96565b6000808215612d8e5750600160f81b612d92565b5060005b604051630d7c62eb60e31b815260048101869052602481018590526001600160f81b031982166044820152605d90636be3175890606401612ac3565b600082612de257612ddf6000611fc3565b92505b81612df457612df16000611fc3565b91505b611ca5838361313b565b604051631ce2e8d760e31b8152600481018390526001600160f81b031960f883901b166024820152600090605d9063e71746b8906044015b602060405180830381865afa158015612e53573d6000803e3d6000fd5b505050506040513d601f19601f82011682018060405250810190611ca5919061387d565b6040516301693b9160e61b815260048101829052600090605d90635a4ee44090602401612a32565b600082612eb357612eb06000611fc3565b92505b81612ec557612ec26000611fc3565b91505b611ca583836000613173565b600082612ee557612ee26000611fc3565b92505b81612ef757612ef46000611fc3565b91505b611ca583836000612b61565b6000808215612f175750600160f81b612f1b565b5060005b6040516334a6d7b960e11b815260048101869052602481018590526001600160f81b031982166044820152605d9063694daf7290606401612ac3565b60606000612f64836131c7565b604080516020808252818301909252919250600091906020820181803683375050509182525060208101929092525090565b600082612faa57612fa76000611fc3565b92505b611ca5838360ff1660016131ef565b6000807f7fffffffffffffffffffffffffffffff5d576e7357a4501ddfe92f46681b20a0831115612ff05750600090506003613074565b6040805160008082526020820180845289905260ff881692820192909252606081018690526080810185905260019060a0016020604051602081039080840390855afa158015613044573d6000803e3d6000fd5b5050604051601f1901519150506001600160a01b03811661306d57600060019250925050613074565b9150600090505b94509492505050565b6000611c6f826001612dfe565b60405163025f346960e51b8152600481018390526001600160f81b031960f883901b166024820152600090605d90634be68d2090604401612e36565b604051630ccd46b160e31b81526004810183905260248101829052600060448201819052908190605d9063666a3588906064015b602060405180830381865afa158015613117573d6000803e3d6000fd5b505050506040513d601f19601f82011682018060405250810190611eee919061387d565b604051633b1015f760e21b81526004810183905260248101829052600060448201819052908190605d9063ec4057dc906064016130fa565b60008082156131875750600160f81b61318b565b5060005b60405163f953e42760e01b815260048101869052602481018590526001600160f81b031982166044820152605d9063f953e42790606401612ac3565b600060ff8216601f811115611c6f57604051632cd44ac360e21b815260040160405180910390fd5b60008082156132035750600160f81b613207565b5060005b604051631927108160e01b815260048101869052602481018590526001600160f81b031982166044820152605d90631927108190606401612ac3565b60405180606001604052806003905b60608152602001906001900390816132525790505090565b506115329060068101905b808211156132895760008155600101613275565b5090565b60006020828403121561329f57600080fd5b81356001600160a01b0381168114611ca557600080fd5b60005b838110156132d15781810151838201526020016132b9565b50506000910152565b600081518084526132f28160208601602086016132b6565b601f01601f19169290920160200192915050565b602081526000611ca560208301846132da565b60008083601f84011261332b57600080fd5b50813567ffffffffffffffff81111561334357600080fd5b6020830191508360208285010111156127d457600080fd5b60008060006040848603121561337057600080fd5b83359250602084013567ffffffffffffffff81111561338e57600080fd5b61339a86828701613319565b9497909650939450505050565b60208082526000906080830183820185845b60038110156133e857601f198785030183526133d68483516132da565b935091840191908401906001016133b9565b50919695505050505050565b60ff60f81b881681526000602060e08184015261341460e084018a6132da565b8381036040850152613426818a6132da565b606085018990526001600160a01b038816608086015260a0850187905284810360c0860152855180825283870192509083019060005b818110156134785783518352928401929184019160010161345c565b50909c9b505050505050505050505050565b6020808252825182820181905260009190848201906040850190845b818110156134c557835160ff16835292840192918401916001016134a6565b50909695505050505050565b600080602083850312156134e457600080fd5b823567ffffffffffffffff8111156134fb57600080fd5b61350785828601613319565b90969095509350505050565b60006020828403121561352557600080fd5b5035919050565b600181811c9082168061354057607f821691505b60208210810361356057634e487b7160e01b600052602260045260246000fd5b50919050565b634e487b7160e01b600052603260045260246000fd5b634e487b7160e01b600052601160045260246000fd5b600060ff821660ff81036135a8576135a861357c565b60010192915050565b60ff8181168382160190811115611c6f57611c6f61357c565b81810381811115611c6f57611c6f61357c565b6000600182016135ef576135ef61357c565b5060010190565b60ff8281168282160390811115611c6f57611c6f61357c565b634e487b7160e01b600052602160045260246000fd5b600060ff8216806136385761363861357c565b6000190192915050565b634e487b7160e01b600052604160045260246000fd5b601f8211156125a357600081815260208120601f850160051c8101602086101561367f5750805b601f850160051c820191505b8181101561369e5782815560010161368b565b505050505050565b67ffffffffffffffff8311156136be576136be613642565b6136d2836136cc835461352c565b83613658565b6000601f84116001811461370657600085156136ee5750838201355b600019600387901b1c1916600186901b178355613760565b600083815260209020601f19861690835b828110156137375786850135825560209485019460019092019101613717565b50868210156137545760001960f88860031b161c19848701351681555b505060018560011b0183555b5050505050565b6001600160a01b038416815260406020820152816040820152818360608301376000818301606090810191909152601f909201601f1916010192915050565b8082028115828204841417611c6f57611c6f61357c565b80820180821115611c6f57611c6f61357c565b6000602082840312156137e257600080fd5b815167ffffffffffffffff808211156137fa57600080fd5b818401915084601f83011261380e57600080fd5b81518181111561382057613820613642565b604051601f8201601f19908116603f0116810190838211818310171561384857613848613642565b8160405282815287602084870101111561386157600080fd5b6138728360208301602088016132b6565b979650505050505050565b60006020828403121561388f57600080fd5b505191905056fea164736f6c6343000813000a",
  "linkReferences": {},
  "deployedLinkReferences": {}
}